:100000000C9434000C9449000C9449000C94490061
:100010000C9449000C9449000C9449000C9449003C
:100020000C9449000C9449000C9449000C9449002C
:100030000C9449000C9449000C9449000C9449001C
:100040000C9449000C9449000C9449000C9449000C
:100050000C9449000C9449000C9449000C944900FC
:100060000C9449000C94490011241FBECFEFD8E036
:10007000DEBFCDBF11E0A0E0B1E0ECEEF0E002C0E9
:1000800005900D92A630B107D9F70E944B000C9451
:1000900074000C940000DF93CF9300D000D000D008
:1000A000CDB7DEB78FE084B9DE011196E0E0F1E074
:1000B00086E001900D928150E1F720E0BE016F5F74
:1000C0007F4F40E951E0FB01E20FF11D808185B9CE
:1000D00080ED97E0FA013197F1F70197D9F72F5F9B
:0C00E000263088F320E0EFCFF894FFCF2B
:0600EC00010204080402F9
:00000001FF
