:100000000C9434000C9451000C9451000C94510049
:100010000C9451000C9451000C9451000C9451001C
:100020000C9451000C9451000C9451000C9451000C
:100030000C9451000C9463000C9451000C945100EA
:100040000C9451000C9451000C9451000C945100EC
:100050000C9451000C9451000C9451000C945100DC
:100060000C9451000C94510011241FBECFEFD8E026
:10007000DEBFCDBF11E0A0E0B1E0E8E7F1E002C0F3
:1000800005900D92A230B107D9F711E0A2E0B1E0DE
:1000900001C01D92A330B107E1F70E94A6000C94A5
:1000A000BA000C94000087EF92EC90938500809347
:1000B00084001092800085E08093810081E080932D
:1000C0006F00789408951F920F920FB60F9211242B
:1000D0008F939F9387EF92EC909385008093840099
:1000E00085B190E2892785B99F918F910F900FBEBE
:1000F0000F901F90189585B19091020121E030E09A
:1001000002C0220F331F9A95E2F7807F822B85B9B8
:1001100088EE93E020E931E0F9013197F1F701979A
:10012000D9F78091020190910001980F90930201FC
:1001300080910201833021F080910201882329F40B
:100140008091000181958093000108958FE384B927
:1001500087EF92EC9093850080938400109280004A
:1001600085E08093810081E080936F0078940E9405
:080170007B00FDCFF894FFCFE6
:02017800010084
:00000001FF
