:100000000C9434000C9456000C9446000C9446005A
:100010000C9446000C9446000C9446000C94460048
:100020000C9446000C9446000C9446000C94460038
:100030000C9446000C9446000C9446000C94460028
:100040000C9446000C9446000C9446000C94460018
:100050000C9446000C9446000C9446000C94460008
:100060000C9446000C94460011241FBECFEFD8E03C
:10007000DEBFCDBF11E0A0E0B1E001C01D92A13014
:10008000B107E1F70E9448000C9481000C94000035
:1000900052985A9A84B18F6384B915B880916900D7
:1000A000836080936900E89A7894FFCF1F920F9243
:1000B0000FB60F9211242F933F938F939F93EF933B
:1000C000FF9384EF91E020E931E0F9013197F1F7F6
:1000D0000197D9F74A9B0AC0809100018F5F8093F6
:1000E000000195B18F73907C892B85B9FF91EF91B9
:1000F0009F918F913F912F910F900FBE0F901F9066
:060100001895F894FFCFF2
:00000001FF
