:100000000C9434000C9446000C9446000C9446006A
:100010000C9446000C9446000C9446000C94460048
:100020000C9446000C9446000C9446000C94460038
:100030000C9446000C9446000C9446000C94460028
:100040000C9451000C9446000C9446000C9446000D
:100050000C9446000C9446000C9446000C94460008
:100060000C9446000C94460011241FBECFEFD8E03C
:10007000DEBFCDBF11E0A0E0B1E001C01D92A13014
:10008000B107E1F70E946E000C9478000C94000018
:1000900016BC14BC85E085BD81E080936E00789429
:1000A00008951F920F920FB60F9211248F939F9372
:1000B000809100018F5F8093000180910001863064
:1000C00030F085B190E2892785B9109200019F91A7
:1000D0008F910F900FBE0F901F901895259A16BC08
:1000E00014BC85E085BD81E080936E007894FFCFDD
:0400F000F894FFCFB2
:00000001FF
