:100000000C9434000C9465000C948B000C94460006
:100010000C9446000C9446000C9446000C94460048
:100020000C9446000C9446000C9446000C94460038
:100030000C9446000C9446000C9446000C94460028
:100040000C9446000C9446000C9446000C94460018
:100050000C9446000C9446000C9446000C94460008
:100060000C9446000C94460011241FBECFEFD8E03C
:10007000DEBFCDBF11E0A0E0B1E001C01D92A13014
:10008000B107E1F70E9448000C94B2000C94000004
:100090008AB1837F8AB98BB18C608BB984B18F634D
:1000A00084B915B88091690083608093690080915C
:1000B00069008C60809369008DB383608DBB7894F8
:1000C000809100018F7385B9FBCF1F920F920FB6FD
:1000D0000F9211242F933F938F939F93EF93FF934E
:1000E00084EF91E020E931E0F9013197F1F70197D0
:1000F000D9F74A9B05C080910001880F80930001C9
:10010000FF91EF919F918F913F912F910F900FBE93
:100110000F901F9018951F920F920FB60F921124F7
:100120002F933F938F939F93EF93FF9384EF91E0EF
:1001300020E931E0F9013197F1F70197D9F74B9BAD
:1001400006C080910001880F816080930001FF91BB
:10015000EF919F918F913F912F910F900FBE0F9034
:080160001F901895F894FFCFE1
:00000001FF
