:100000000C9434000C9446000C9446000C9446006A
:100010000C9446000C9446000C9446000C94460048
:100020000C9446000C9446000C9446000C94460038
:100030000C9446000C947C000C9446000C944600F2
:100040000C945F000C9446000C9446000C944600FF
:100050000C9446000C9446000C9446000C94460008
:100060000C9446000C94460011241FBECFEFD8E03C
:10007000DEBFCDBF11E0A0E0B1E001C01D92A13014
:10008000B107E1F70E9494000C94AC000C940000BE
:1000900016BC14BC85E085BD81E080936E00089598
:1000A0008BE791EE909385008093840010928000FE
:1000B00085E08093810081E080936F0008951F9216
:1000C0000F920FB60F9211248F939F93809100018E
:1000D0008F5F8093000180910001833030F085B103
:1000E00090E1892785B9109200019F918F910F901F
:1000F0000FBE0F901F9018951F920F920FB60F9280
:1001000011248F939F938BE791EE909385008093BA
:10011000840085B190E2892785B99F918F910F90D6
:100120000FBE0F901F90189584B1806384B916BCE0
:1001300014BC35E035BD21E020936E008BE791EED5
:10014000909385008093840010928000309381000A
:0C01500020936F007894FFCFF894FFCF4D
:00000001FF
