:100000000C9434000C943E000C943E000C943E0082
:100010000C943E000C943E000C943E000C943E0068
:100020000C943E000C943E000C943E000C943E0058
:100030000C943E000C943E000C943E000C943E0048
:100040000C943E000C943E000C943E000C943E0038
:100050000C943E000C943E000C943E000C943E0028
:100060000C943E000C943E0011241FBECFEFD8E04C
:10007000DEBFCDBF0E9440000C9462000C940000D3
:1000800057985F9A84B18F6384B915B820E080E0F7
:1000900040E951E001C080E04F99FDCF8823E1F7AE
:1000A00088EC90E0FA013197F1F70197D9F74F9971
:1000B000F2CF2F5F85B1922F9F73807C982B95B9DB
:0800C00081E0EACFF894FFCFC4
:00000001FF
